{
  "_format": "hh-sol-artifact-1",
  "contractName": "CustomERC3525",
  "sourceName": "contracts/CustomERC3525.sol",
  "abi": [
    {
      "inputs": [
        {
          "internalType": "address",
          "name": "owner_",
          "type": "address"
        }
      ],
      "stateMutability": "nonpayable",
      "type": "constructor"
    },
    {
      "anonymous": false,
      "inputs": [
        {
          "indexed": true,
          "internalType": "address",
          "name": "_owner",
          "type": "address"
        },
        {
          "indexed": true,
          "internalType": "address",
          "name": "_approved",
          "type": "address"
        },
        {
          "indexed": true,
          "internalType": "uint256",
          "name": "_tokenId",
          "type": "uint256"
        }
      ],
      "name": "Approval",
      "type": "event"
    },
    {
      "anonymous": false,
      "inputs": [
        {
          "indexed": true,
          "internalType": "address",
          "name": "_owner",
          "type": "address"
        },
        {
          "indexed": true,
          "internalType": "address",
          "name": "_operator",
          "type": "address"
        },
        {
          "indexed": false,
          "internalType": "bool",
          "name": "_approved",
          "type": "bool"
        }
      ],
      "name": "ApprovalForAll",
      "type": "event"
    },
    {
      "anonymous": false,
      "inputs": [
        {
          "indexed": true,
          "internalType": "uint256",
          "name": "_tokenId",
          "type": "uint256"
        },
        {
          "indexed": true,
          "internalType": "address",
          "name": "_operator",
          "type": "address"
        },
        {
          "indexed": false,
          "internalType": "uint256",
          "name": "_value",
          "type": "uint256"
        }
      ],
      "name": "ApprovalValue",
      "type": "event"
    },
    {
      "anonymous": false,
      "inputs": [
        {
          "indexed": true,
          "internalType": "address",
          "name": "metadataDescriptor",
          "type": "address"
        }
      ],
      "name": "SetMetadataDescriptor",
      "type": "event"
    },
    {
      "anonymous": false,
      "inputs": [
        {
          "indexed": true,
          "internalType": "uint256",
          "name": "_tokenId",
          "type": "uint256"
        },
        {
          "indexed": true,
          "internalType": "uint256",
          "name": "_oldSlot",
          "type": "uint256"
        },
        {
          "indexed": true,
          "internalType": "uint256",
          "name": "_newSlot",
          "type": "uint256"
        }
      ],
      "name": "SlotChanged",
      "type": "event"
    },
    {
      "anonymous": false,
      "inputs": [
        {
          "indexed": true,
          "internalType": "address",
          "name": "_from",
          "type": "address"
        },
        {
          "indexed": true,
          "internalType": "address",
          "name": "_to",
          "type": "address"
        },
        {
          "indexed": true,
          "internalType": "uint256",
          "name": "_tokenId",
          "type": "uint256"
        }
      ],
      "name": "Transfer",
      "type": "event"
    },
    {
      "anonymous": false,
      "inputs": [
        {
          "indexed": true,
          "internalType": "uint256",
          "name": "_fromTokenId",
          "type": "uint256"
        },
        {
          "indexed": true,
          "internalType": "uint256",
          "name": "_toTokenId",
          "type": "uint256"
        },
        {
          "indexed": false,
          "internalType": "uint256",
          "name": "_value",
          "type": "uint256"
        }
      ],
      "name": "TransferValue",
      "type": "event"
    },
    {
      "inputs": [
        {
          "internalType": "uint256",
          "name": "tokenId_",
          "type": "uint256"
        },
        {
          "internalType": "address",
          "name": "operator_",
          "type": "address"
        }
      ],
      "name": "allowance",
      "outputs": [
        {
          "internalType": "uint256",
          "name": "",
          "type": "uint256"
        }
      ],
      "stateMutability": "view",
      "type": "function"
    },
    {
      "inputs": [
        {
          "internalType": "address",
          "name": "to_",
          "type": "address"
        },
        {
          "internalType": "uint256",
          "name": "tokenId_",
          "type": "uint256"
        }
      ],
      "name": "approve",
      "outputs": [],
      "stateMutability": "payable",
      "type": "function"
    },
    {
      "inputs": [
        {
          "internalType": "uint256",
          "name": "tokenId_",
          "type": "uint256"
        },
        {
          "internalType": "address",
          "name": "to_",
          "type": "address"
        },
        {
          "internalType": "uint256",
          "name": "value_",
          "type": "uint256"
        }
      ],
      "name": "approve",
      "outputs": [],
      "stateMutability": "payable",
      "type": "function"
    },
    {
      "inputs": [
        {
          "internalType": "address",
          "name": "to_",
          "type": "address"
        },
        {
          "internalType": "uint256",
          "name": "tokenId_",
          "type": "uint256"
        }
      ],
      "name": "approveAllTokensAccess",
      "outputs": [],
      "stateMutability": "nonpayable",
      "type": "function"
    },
    {
      "inputs": [
        {
          "internalType": "uint256",
          "name": "tokenId_",
          "type": "uint256"
        },
        {
          "internalType": "address",
          "name": "to_",
          "type": "address"
        },
        {
          "internalType": "uint256",
          "name": "value_",
          "type": "uint256"
        }
      ],
      "name": "approveTokenAccess",
      "outputs": [],
      "stateMutability": "nonpayable",
      "type": "function"
    },
    {
      "inputs": [
        {
          "internalType": "address",
          "name": "owner_",
          "type": "address"
        }
      ],
      "name": "balanceOf",
      "outputs": [
        {
          "internalType": "uint256",
          "name": "balance",
          "type": "uint256"
        }
      ],
      "stateMutability": "view",
      "type": "function"
    },
    {
      "inputs": [
        {
          "internalType": "uint256",
          "name": "tokenId_",
          "type": "uint256"
        }
      ],
      "name": "balanceOf",
      "outputs": [
        {
          "internalType": "uint256",
          "name": "",
          "type": "uint256"
        }
      ],
      "stateMutability": "view",
      "type": "function"
    },
    {
      "inputs": [],
      "name": "contractURI",
      "outputs": [
        {
          "internalType": "string",
          "name": "",
          "type": "string"
        }
      ],
      "stateMutability": "view",
      "type": "function"
    },
    {
      "inputs": [
        {
          "internalType": "uint256",
          "name": "fromTokenId_",
          "type": "uint256"
        },
        {
          "internalType": "uint256",
          "name": "toTokenId_",
          "type": "uint256"
        },
        {
          "internalType": "uint256",
          "name": "value_",
          "type": "uint256"
        }
      ],
      "name": "exchangeTokenValue",
      "outputs": [],
      "stateMutability": "nonpayable",
      "type": "function"
    },
    {
      "inputs": [
        {
          "internalType": "uint256",
          "name": "tokenId_",
          "type": "uint256"
        }
      ],
      "name": "getApproved",
      "outputs": [
        {
          "internalType": "address",
          "name": "",
          "type": "address"
        }
      ],
      "stateMutability": "view",
      "type": "function"
    },
    {
      "inputs": [
        {
          "internalType": "address",
          "name": "owner_",
          "type": "address"
        },
        {
          "internalType": "address",
          "name": "operator_",
          "type": "address"
        }
      ],
      "name": "isApprovedForAll",
      "outputs": [
        {
          "internalType": "bool",
          "name": "",
          "type": "bool"
        }
      ],
      "stateMutability": "view",
      "type": "function"
    },
    {
      "inputs": [],
      "name": "metadataDescriptor",
      "outputs": [
        {
          "internalType": "contract IERC3525MetadataDescriptor",
          "name": "",
          "type": "address"
        }
      ],
      "stateMutability": "view",
      "type": "function"
    },
    {
      "inputs": [
        {
          "internalType": "address",
          "name": "to_",
          "type": "address"
        },
        {
          "internalType": "uint256",
          "name": "tokenId_",
          "type": "uint256"
        },
        {
          "internalType": "uint256",
          "name": "slot_",
          "type": "uint256"
        },
        {
          "internalType": "uint256",
          "name": "amount_",
          "type": "uint256"
        },
        {
          "internalType": "address",
          "name": "issuer_",
          "type": "address"
        },
        {
          "internalType": "string",
          "name": "metadataHash_",
          "type": "string"
        }
      ],
      "name": "mintCustom",
      "outputs": [],
      "stateMutability": "nonpayable",
      "type": "function"
    },
    {
      "inputs": [
        {
          "internalType": "address",
          "name": "to_",
          "type": "address"
        },
        {
          "internalType": "uint256",
          "name": "slot_",
          "type": "uint256"
        },
        {
          "internalType": "uint256",
          "name": "amount_",
          "type": "uint256"
        },
        {
          "internalType": "address",
          "name": "issuer_",
          "type": "address"
        },
        {
          "internalType": "string",
          "name": "metadataHash_",
          "type": "string"
        }
      ],
      "name": "mintDefault",
      "outputs": [],
      "stateMutability": "nonpayable",
      "type": "function"
    },
    {
      "inputs": [],
      "name": "name",
      "outputs": [
        {
          "internalType": "string",
          "name": "",
          "type": "string"
        }
      ],
      "stateMutability": "view",
      "type": "function"
    },
    {
      "inputs": [],
      "name": "owner",
      "outputs": [
        {
          "internalType": "address",
          "name": "",
          "type": "address"
        }
      ],
      "stateMutability": "view",
      "type": "function"
    },
    {
      "inputs": [
        {
          "internalType": "uint256",
          "name": "tokenId_",
          "type": "uint256"
        }
      ],
      "name": "ownerOf",
      "outputs": [
        {
          "internalType": "address",
          "name": "owner_",
          "type": "address"
        }
      ],
      "stateMutability": "view",
      "type": "function"
    },
    {
      "inputs": [
        {
          "internalType": "address",
          "name": "from_",
          "type": "address"
        },
        {
          "internalType": "address",
          "name": "to_",
          "type": "address"
        },
        {
          "internalType": "uint256",
          "name": "tokenId_",
          "type": "uint256"
        }
      ],
      "name": "safeTransferFrom",
      "outputs": [],
      "stateMutability": "payable",
      "type": "function"
    },
    {
      "inputs": [
        {
          "internalType": "address",
          "name": "from_",
          "type": "address"
        },
        {
          "internalType": "address",
          "name": "to_",
          "type": "address"
        },
        {
          "internalType": "uint256",
          "name": "tokenId_",
          "type": "uint256"
        },
        {
          "internalType": "bytes",
          "name": "data_",
          "type": "bytes"
        }
      ],
      "name": "safeTransferFrom",
      "outputs": [],
      "stateMutability": "payable",
      "type": "function"
    },
    {
      "inputs": [
        {
          "internalType": "address",
          "name": "operator_",
          "type": "address"
        },
        {
          "internalType": "bool",
          "name": "approved_",
          "type": "bool"
        }
      ],
      "name": "setApprovalForAll",
      "outputs": [],
      "stateMutability": "nonpayable",
      "type": "function"
    },
    {
      "inputs": [
        {
          "internalType": "uint256",
          "name": "tokenId_",
          "type": "uint256"
        }
      ],
      "name": "slotOf",
      "outputs": [
        {
          "internalType": "uint256",
          "name": "",
          "type": "uint256"
        }
      ],
      "stateMutability": "view",
      "type": "function"
    },
    {
      "inputs": [
        {
          "internalType": "uint256",
          "name": "slot_",
          "type": "uint256"
        }
      ],
      "name": "slotURI",
      "outputs": [
        {
          "internalType": "string",
          "name": "",
          "type": "string"
        }
      ],
      "stateMutability": "view",
      "type": "function"
    },
    {
      "inputs": [
        {
          "internalType": "bytes4",
          "name": "interfaceId",
          "type": "bytes4"
        }
      ],
      "name": "supportsInterface",
      "outputs": [
        {
          "internalType": "bool",
          "name": "",
          "type": "bool"
        }
      ],
      "stateMutability": "view",
      "type": "function"
    },
    {
      "inputs": [],
      "name": "symbol",
      "outputs": [
        {
          "internalType": "string",
          "name": "",
          "type": "string"
        }
      ],
      "stateMutability": "view",
      "type": "function"
    },
    {
      "inputs": [
        {
          "internalType": "uint256",
          "name": "tokenId_",
          "type": "uint256"
        }
      ],
      "name": "tokenBalance",
      "outputs": [
        {
          "internalType": "uint256",
          "name": "",
          "type": "uint256"
        }
      ],
      "stateMutability": "view",
      "type": "function"
    },
    {
      "inputs": [
        {
          "internalType": "uint256",
          "name": "index_",
          "type": "uint256"
        }
      ],
      "name": "tokenByIndex",
      "outputs": [
        {
          "internalType": "uint256",
          "name": "",
          "type": "uint256"
        }
      ],
      "stateMutability": "view",
      "type": "function"
    },
    {
      "inputs": [
        {
          "internalType": "address",
          "name": "owner_",
          "type": "address"
        },
        {
          "internalType": "uint256",
          "name": "index_",
          "type": "uint256"
        }
      ],
      "name": "tokenOfOwnerByIndex",
      "outputs": [
        {
          "internalType": "uint256",
          "name": "",
          "type": "uint256"
        }
      ],
      "stateMutability": "view",
      "type": "function"
    },
    {
      "inputs": [
        {
          "internalType": "uint256",
          "name": "tokenId_",
          "type": "uint256"
        }
      ],
      "name": "tokenURI",
      "outputs": [
        {
          "internalType": "string",
          "name": "",
          "type": "string"
        }
      ],
      "stateMutability": "view",
      "type": "function"
    },
    {
      "inputs": [],
      "name": "totalSupply",
      "outputs": [
        {
          "internalType": "uint256",
          "name": "",
          "type": "uint256"
        }
      ],
      "stateMutability": "view",
      "type": "function"
    },
    {
      "inputs": [
        {
          "internalType": "uint256",
          "name": "tokenId_",
          "type": "uint256"
        },
        {
          "internalType": "address",
          "name": "to_",
          "type": "address"
        },
        {
          "internalType": "uint256",
          "name": "value_",
          "type": "uint256"
        }
      ],
      "name": "transferFractionalOwnership",
      "outputs": [],
      "stateMutability": "nonpayable",
      "type": "function"
    },
    {
      "inputs": [
        {
          "internalType": "uint256",
          "name": "fromTokenId_",
          "type": "uint256"
        },
        {
          "internalType": "address",
          "name": "to_",
          "type": "address"
        },
        {
          "internalType": "uint256",
          "name": "value_",
          "type": "uint256"
        }
      ],
      "name": "transferFrom",
      "outputs": [
        {
          "internalType": "uint256",
          "name": "",
          "type": "uint256"
        }
      ],
      "stateMutability": "payable",
      "type": "function"
    },
    {
      "inputs": [
        {
          "internalType": "address",
          "name": "from_",
          "type": "address"
        },
        {
          "internalType": "address",
          "name": "to_",
          "type": "address"
        },
        {
          "internalType": "uint256",
          "name": "tokenId_",
          "type": "uint256"
        }
      ],
      "name": "transferFrom",
      "outputs": [],
      "stateMutability": "payable",
      "type": "function"
    },
    {
      "inputs": [
        {
          "internalType": "uint256",
          "name": "fromTokenId_",
          "type": "uint256"
        },
        {
          "internalType": "uint256",
          "name": "toTokenId_",
          "type": "uint256"
        },
        {
          "internalType": "uint256",
          "name": "value_",
          "type": "uint256"
        }
      ],
      "name": "transferFrom",
      "outputs": [],
      "stateMutability": "payable",
      "type": "function"
    },
    {
      "inputs": [
        {
          "internalType": "address",
          "name": "from_",
          "type": "address"
        },
        {
          "internalType": "address",
          "name": "to_",
          "type": "address"
        },
        {
          "internalType": "uint256",
          "name": "tokenId_",
          "type": "uint256"
        }
      ],
      "name": "transferOwnership",
      "outputs": [],
      "stateMutability": "nonpayable",
      "type": "function"
    },
    {
      "inputs": [],
      "name": "valueDecimals",
      "outputs": [
        {
          "internalType": "uint8",
          "name": "",
          "type": "uint8"
        }
      ],
      "stateMutability": "view",
      "type": "function"
    }
  ],
  "bytecode": "0x60806040523480156200001157600080fd5b506040516200352238038062003522833981016040819052620000349162000187565b604080518082018252600d81526c437573746f6d4552433335323560981b602080830191825283518085019094526009845268435f4552433335323560b81b9084015281519192916012916200008e9160009190620000e1565b508151620000a4906001906020850190620000e1565b506002805460ff191660ff929092169190911790555050600980546001600160a01b0319166001600160a01b0392909216919091179055620001f6565b828054620000ef90620001b9565b90600052602060002090601f0160209004810192826200011357600085556200015e565b82601f106200012e57805160ff19168380011785556200015e565b828001600101855582156200015e579182015b828111156200015e57825182559160200191906001019062000141565b506200016c92915062000170565b5090565b5b808211156200016c576000815560010162000171565b6000602082840312156200019a57600080fd5b81516001600160a01b0381168114620001b257600080fd5b9392505050565b600181811c90821680620001ce57607f821691505b60208210811415620001f057634e487b7160e01b600052602260045260246000fd5b50919050565b61331c80620002066000396000f3fe6080604052600436106102045760003560e01c806349afc6e5116101185780639cc7f708116100a0578063c87b56dd1161006f578063c87b56dd14610599578063d446bd20146105b9578063e345e0bc146105d9578063e8a3d485146105f9578063e985e9c51461060e57600080fd5b80639cc7f70814610526578063a22cb46514610546578063b57b10b114610566578063b88d4fde1461058657600080fd5b8063831b2617116100e7578063831b26171461049e578063840f7113146104be5780638cb0a511146104de5780638da5cb5b146104f157806395d89b411461051157600080fd5b806349afc6e51461041e5780634f6ccce71461043e5780636352211e1461045e57806370a082311461047e57600080fd5b806318160ddd1161019b578063310ed7f01161016a578063310ed7f0146103965780633a6ac445146103a95780633e7e8669146103c95780633f077e48146103eb57806342842e0e1461040b57600080fd5b806318160ddd1461032e57806323b872dd14610343578063263f3e7e146103565780632f745c591461037657600080fd5b806309c3dd87116101d757806309c3dd87146102ad5780630f485c02146102cd578063124a8ef0146102ee578063171c00fd1461030e57600080fd5b806301ffc9a71461020957806306fdde031461023e578063081812fc14610260578063095ea7b314610298575b600080fd5b34801561021557600080fd5b50610229610224366004612a30565b61065b565b60405190151581526020015b60405180910390f35b34801561024a57600080fd5b506102536106fe565b6040516102359190612aa5565b34801561026c57600080fd5b5061028061027b366004612ab8565b610790565b6040516001600160a01b039091168152602001610235565b6102ab6102a6366004612ae8565b6107e2565b005b3480156102b957600080fd5b506102536102c8366004612ab8565b610871565b6102e06102db366004612b12565b610972565b604051908152602001610235565b3480156102fa57600080fd5b506102ab610309366004612c14565b6109b4565b34801561031a57600080fd5b506102ab610329366004612c86565b610ab5565b34801561033a57600080fd5b506005546102e0565b6102ab610351366004612c86565b610af5565b34801561036257600080fd5b506102e0610371366004612ab8565b610b26565b34801561038257600080fd5b506102e0610391366004612ae8565b610b6e565b6102ab6103a4366004612cb2565b610c0f565b3480156103b557600080fd5b506102ab6103c4366004612b12565b610c25565b3480156103d557600080fd5b5060025460405160ff9091168152602001610235565b3480156103f757600080fd5b506102ab610406366004612b12565b610c30565b6102ab610419366004612c86565b610c7a565b34801561042a57600080fd5b506102e0610439366004612ab8565b610c95565b34801561044a57600080fd5b506102e0610459366004612ab8565b610ca0565b34801561046a57600080fd5b50610280610479366004612ab8565b610d31565b34801561048a57600080fd5b506102e0610499366004612cde565b610dcd565b3480156104aa57600080fd5b506102ab6104b9366004612cb2565b610e55565b3480156104ca57600080fd5b50600854610280906001600160a01b031681565b6102ab6104ec366004612b12565b610edb565b3480156104fd57600080fd5b50600954610280906001600160a01b031681565b34801561051d57600080fd5b50610253610f5d565b34801561053257600080fd5b506102e0610541366004612ab8565b610f6c565b34801561055257600080fd5b506102ab610561366004612d07565b610fb4565b34801561057257600080fd5b506102ab610581366004612d3e565b610fc3565b6102ab610594366004612db8565b6110b7565b3480156105a557600080fd5b506102536105b4366004612ab8565b6110e9565b3480156105c557600080fd5b506102ab6105d4366004612ae8565b611188565b3480156105e557600080fd5b506102e06105f4366004612e34565b611192565b34801561060557600080fd5b506102536111c6565b34801561061a57600080fd5b50610229610629366004612e60565b6001600160a01b0391821660009081526007602090815260408083209390941682526002909201909152205460ff1690565b60006001600160e01b031982166301ffc9a760e01b148061068c57506001600160e01b03198216630354d60560e61b145b806106a757506001600160e01b031982166380ac58cd60e01b145b806106c257506001600160e01b031982166370b0048160e11b145b806106dd57506001600160e01b0319821663780e9d6360e01b145b806106f857506001600160e01b03198216635b5e139f60e01b145b92915050565b60606000805461070d90612e8a565b80601f016020809104026020016040519081016040528092919081815260200182805461073990612e8a565b80156107865780601f1061075b57610100808354040283529160200191610786565b820191906000526020600020905b81548152906001019060200180831161076957829003601f168201915b5050505050905090565b600061079b826112cf565b6000828152600660205260409020546005805490919081106107bf576107bf612ec5565b60009182526020909120600460069092020101546001600160a01b031692915050565b60006107ed82610d31565b9050806001600160a01b0316836001600160a01b0316141561082a5760405162461bcd60e51b815260040161082190612edb565b60405180910390fd5b336001600160a01b038216148061084657506108468133610629565b6108625760405162461bcd60e51b815260040161082190612f1d565b61086c8383611323565b505050565b6060600061088a60408051602081019091526000815290565b6008549091506001600160a01b03166108ea5760008151116108bb576040518060200160405280600081525061096b565b806108c5846113ba565b6040516020016108d6929190612f7a565b60405160208183030381529060405261096b565b600854604051633601bfc560e11b8152600481018590526001600160a01b0390911690636c037f8a906024015b60006040518083038186803b15801561092f57600080fd5b505afa158015610943573d6000803e3d6000fd5b505050506040513d6000823e601f3d908101601f1916820160405261096b9190810190612fba565b9392505050565b600061097f338584611457565b600061098a856114e7565b90506109a1848261099a88610b26565b60006114f1565b6109ac858285611618565b949350505050565b6009546001600160a01b03163314610a045760405162461bcd60e51b81526020600482015260136024820152721bdb9b1e481bdddb995c8818d85b881b5a5b9d606a1b6044820152606401610821565b6000610a118686866118ca565b6000818152600a6020818152604080842080546001600160a01b03808e166001600160a01b0319928316178355600183018054918c16919092161790558151808301909252600682526561637469766560d01b828401908152948690529290915251929350610a86926002909101919061292c565b506000818152600a602090815260409091208351610aac9260039092019185019061292c565b50505050505050565b610abe81610d31565b6001600160a01b0316336001600160a01b031614610aee5760405162461bcd60e51b815260040161082190613031565b61086c8383835b610aff33826118e3565b610b1b5760405162461bcd60e51b815260040161082190613078565b61086c83838361194b565b6000610b31826112cf565b600082815260066020526040902054600580549091908110610b5557610b55612ec5565b9060005260206000209060060201600101549050919050565b6000610b7983610dcd565b8210610bd25760405162461bcd60e51b815260206004820152602260248201527f455243333532353a206f776e657220696e646578206f7574206f6620626f756e604482015261647360f01b6064820152608401610821565b6001600160a01b0383166000908152600760205260409020805483908110610bfc57610bfc612ec5565b9060005260206000200154905092915050565b610c1a338483611457565b61086c838383611618565b61086c838383610edb565b610c3983610d31565b6001600160a01b0316336001600160a01b031614610c695760405162461bcd60e51b815260040161082190613031565b610c74838383610972565b50505050565b61086c838383604051806020016040528060008152506110b7565b60006106f882610f6c565b6000610cab60055490565b8210610d055760405162461bcd60e51b815260206004820152602360248201527f455243333532353a20676c6f62616c20696e646578206f7574206f6620626f756044820152626e647360e81b6064820152608401610821565b60058281548110610d1857610d18612ec5565b9060005260206000209060060201600001549050919050565b6000610d3c826112cf565b600082815260066020526040902054600580549091908110610d6057610d60612ec5565b60009182526020909120600360069092020101546001600160a01b0316905080610dc85760405162461bcd60e51b8152602060048201526019602482015278115490cccd4c8d4e881a5b9d985b1a59081d1bdad95b881251603a1b6044820152606401610821565b919050565b60006001600160a01b038216610e395760405162461bcd60e51b815260206004820152602b60248201527f455243333532353a2062616c616e636520717565727920666f7220746865207a60448201526a65726f206164647265737360a81b6064820152608401610821565b506001600160a01b031660009081526007602052604090205490565b610e5e83610d31565b6001600160a01b0316336001600160a01b031614610ed05760405162461bcd60e51b815260206004820152602960248201527f4f6e6c7920746f6b656e206f776e65722063616e2065786368616e676520746f6044820152686b656e2076616c756560b81b6064820152608401610821565b61086c838383610c0f565b6000610ee684610d31565b9050806001600160a01b0316836001600160a01b03161415610f1a5760405162461bcd60e51b815260040161082190612edb565b336001600160a01b0382161480610f365750610f368133610629565b610f525760405162461bcd60e51b815260040161082190612f1d565b610c74848484611aac565b60606001805461070d90612e8a565b6000610f77826112cf565b600082815260066020526040902054600580549091908110610f9b57610f9b612ec5565b9060005260206000209060060201600201549050919050565b610fbf338383611be4565b5050565b6009546001600160a01b031633146110135760405162461bcd60e51b81526020600482015260136024820152721bdb9b1e481bdddb995c8818d85b881b5a5b9d606a1b6044820152606401610821565b61101f868686866114f1565b6000858152600a6020818152604080842080546001600160a01b03808d166001600160a01b0319928316178355600183018054918a16919092161790558151808301909252600682526561637469766560d01b828401908152948a90529290915251611091926002909201919061292c565b506000858152600a602090815260409091208251610aac9260039092019184019061292c565b6110c133836118e3565b6110dd5760405162461bcd60e51b815260040161082190613078565b610c7484848484611caf565b60606110f4826112cf565b600061110b60408051602081019091526000815290565b6008549091506001600160a01b031661115757600081511161113c576040518060200160405280600081525061096b565b80611146846113ba565b6040516020016108d69291906130ca565b6008546040516344a5a61760e11b8152600481018590526001600160a01b039091169063894b4c2e90602401610917565b610fbf82826107e2565b600061119d836112cf565b5060009182526004602090815260408084206001600160a01b0393909316845291905290205490565b606060006111df60408051602081019091526000815290565b6008549091506001600160a01b031661123f57600081511161121057604051806020016040528060008152506112c9565b8061121a30611d22565b60405160200161122b9291906130f9565b6040516020818303038152906040526112c9565b600860009054906101000a90046001600160a01b03166001600160a01b031663725fa09c6040518163ffffffff1660e01b815260040160006040518083038186803b15801561128d57600080fd5b505afa1580156112a1573d6000803e3d6000fd5b505050506040513d6000823e601f3d908101601f191682016040526112c99190810190612fba565b91505090565b6112d881611d38565b6113205760405162461bcd60e51b8152602060048201526019602482015278115490cccd4c8d4e881a5b9d985b1a59081d1bdad95b881251603a1b6044820152606401610821565b50565b60008181526006602052604090205460058054849290811061134757611347612ec5565b6000918252602090912060069091020160040180546001600160a01b0319166001600160a01b039283161790558190831661138182610d31565b6001600160a01b03167f8c5be1e5ebec7d5bd14f71427d1e84f3dd0314c0f7b2291e5b200ac8c7c3b92560405160405180910390a45050565b606060006113c783611d84565b600101905060008167ffffffffffffffff8111156113e7576113e7612b47565b6040519080825280601f01601f191660200182016040528015611411576020820181803683370190505b5090508181016020015b600019016f181899199a1a9b1b9c1cb0b131b232b360811b600a86061a8153600a850494508461144a5761144f565b61141b565b509392505050565b60006114638385611192565b905061146f84846118e3565b15801561147e57506000198114155b15610c7457818110156114d35760405162461bcd60e51b815260206004820152601f60248201527f455243333532353a20696e73756666696369656e7420616c6c6f77616e6365006044820152606401610821565b610c7483856114e28585613153565b611aac565b60006106f8611e5c565b6001600160a01b0384166115515760405162461bcd60e51b815260206004820152602160248201527f455243333532353a206d696e7420746f20746865207a65726f206164647265736044820152607360f81b6064820152608401610821565b826115a85760405162461bcd60e51b815260206004820152602160248201527f455243333532353a2063616e6e6f74206d696e74207a65726f20746f6b656e496044820152601960fa1b6064820152608401610821565b6115b183611d38565b156115fe5760405162461bcd60e51b815260206004820152601d60248201527f455243333532353a20746f6b656e20616c7265616479206d696e7465640000006044820152606401610821565b611609848484611e73565b6116138382611f39565b610c74565b61162183611d38565b61167d5760405162461bcd60e51b815260206004820152602760248201527f455243333532353a207472616e736665722066726f6d20696e76616c696420746044820152661bdad95b88125160ca1b6064820152608401610821565b61168682611d38565b6116e05760405162461bcd60e51b815260206004820152602560248201527f455243333532353a207472616e7366657220746f20696e76616c696420746f6b604482015264195b88125160da1b6064820152608401610821565b60008381526006602052604081205460058054909190811061170457611704612ec5565b906000526020600020906006020190506000600560066000868152602001908152602001600020548154811061173c5761173c612ec5565b9060005260206000209060060201905082826002015410156117b35760405162461bcd60e51b815260206004820152602a60248201527f455243333532353a20696e73756666696369656e742062616c616e636520666f60448201526939103a3930b739b332b960b11b6064820152608401610821565b80600101548260010154146118215760405162461bcd60e51b815260206004820152602e60248201527f455243333532353a207472616e7366657220746f20746f6b656e20776974682060448201526d191a5999995c995b9d081cdb1bdd60921b6064820152608401610821565b828260020160008282546118359190613153565b9250508190555082816002016000828254611850919061316a565b9091555050604051838152849086907f0b2aac84f3ec956911fd78eae5311062972ff949f38412e8da39069d9f068cc69060200160405180910390a36118a785858560405180602001604052806000815250611fbe565b6118c35760405162461bcd60e51b815260040161082190613182565b5050505050565b6000806118d5611e5c565b90506109ac858286866114f1565b60006118ee826112cf565b60006118f983610d31565b9050806001600160a01b0316846001600160a01b0316148061192057506119208185610629565b806109ac5750836001600160a01b031661193984610790565b6001600160a01b031614949350505050565b826001600160a01b031661195e82610d31565b6001600160a01b0316146119c05760405162461bcd60e51b8152602060048201526024808201527f455243333532353a207472616e736665722066726f6d20696e76616c6964206f6044820152633bb732b960e11b6064820152608401610821565b6001600160a01b038216611a245760405162461bcd60e51b815260206004820152602560248201527f455243333532353a207472616e7366657220746f20746865207a65726f206164604482015264647265737360d81b6064820152608401610821565b6000611a2f82610b26565b90506000611a3c83610f6c565b9050611a49600084611323565b611a528361215f565b611a5c85846121fb565b611a66848461231c565b82846001600160a01b0316866001600160a01b03167fddf252ad1be2c89b69c2b068fc378daa952ba7f163c4a11628f55a4df523b3ef60405160405180910390a46118c3565b6001600160a01b038216611b155760405162461bcd60e51b815260206004820152602a60248201527f455243333532353a20617070726f76652076616c756520746f20746865207a65604482015269726f206164647265737360b01b6064820152608401610821565b611b1f82846123a5565b611b8557600083815260066020526040902054600580549091908110611b4757611b47612ec5565b60009182526020808320600692909202909101600501805460018101825590835291200180546001600160a01b0319166001600160a01b0384161790555b60008381526004602090815260408083206001600160a01b038616808552908352928190208490555183815285917f621b050de0ad08b51d19b48b3e6df75348c4de6bdd93e81b252ca62e28265b1b91015b60405180910390a3505050565b816001600160a01b0316836001600160a01b03161415611c465760405162461bcd60e51b815260206004820152601a60248201527f455243333532353a20617070726f766520746f2063616c6c65720000000000006044820152606401610821565b6001600160a01b0383811660008181526007602090815260408083209487168084526002909501825291829020805460ff191686151590811790915591519182527f17307eab39ab6107e8899845ad3d59bd9653f200f220920489ca2b5937696c319101611bd7565b611cba84848461194b565b611cc684848484612479565b610c745760405162461bcd60e51b815260206004820152602760248201527f455243333532353a207472616e7366657220746f206e6f6e204552433732315260448201526632b1b2b4bb32b960c91b6064820152608401610821565b60606106f86001600160a01b0383166014612641565b600554600090158015906106f85750600082815260066020526040902054600580548492908110611d6b57611d6b612ec5565b9060005260206000209060060201600001541492915050565b60008072184f03e93ff9f4daa797ed6e38ed64bf6a1f0160401b8310611dc35772184f03e93ff9f4daa797ed6e38ed64bf6a1f0160401b830492506040015b6d04ee2d6d415b85acef81000000008310611def576d04ee2d6d415b85acef8100000000830492506020015b662386f26fc100008310611e0d57662386f26fc10000830492506010015b6305f5e1008310611e25576305f5e100830492506008015b6127108310611e3957612710830492506004015b60648310611e4b576064830492506002015b600a83106106f85760010192915050565b6000611e6c600380546001019055565b5060035490565b6040805160c081018252838152602080820184905260008284018190526001600160a01b038716606084015260808301819052835181815291820190935260a08201529050611ec1816127dd565b611ecb848461231c565b60405183906001600160a01b038616906000907fddf252ad1be2c89b69c2b068fc378daa952ba7f163c4a11628f55a4df523b3ef908290a4816000847fe4f48c240d3b994948aa54f3e2f5fca59263dfe1d52b6e4cf39a5d249b5ccb6560405160405180910390a450505050565b600082815260066020526040902054600580548392908110611f5d57611f5d612ec5565b90600052602060002090600602016002016000828254611f7d919061316a565b909155505060405181815282906000907f0b2aac84f3ec956911fd78eae5311062972ff949f38412e8da39069d9f068cc69060200160405180910390a35050565b600080611fca85610d31565b90506001600160a01b0381163b1515801561205d57506040516301ffc9a760e01b8152629ce20b60e01b60048201526001600160a01b038216906301ffc9a79060240160206040518083038186803b15801561202557600080fd5b505afa158015612039573d6000803e3d6000fd5b505050506040513d601f19601f8201168201806040525081019061205d91906131ca565b1561215357604051629ce20b60e01b81526001600160a01b03821690629ce20b906120949033908a908a908a908a906004016131e7565b602060405180830381600087803b1580156120ae57600080fd5b505af19250505080156120de575060408051601f3d908101601f191682019092526120db91810190613225565b60015b612138573d80801561210c576040519150601f19603f3d011682016040523d82523d6000602084013e612111565b606091505b5080516121305760405162461bcd60e51b815260040161082190613182565b805181602001fd5b6001600160e01b031916629ce20b60e01b1491506109ac9050565b50600195945050505050565b60008181526006602052604081205460058054909190811061218357612183612ec5565b600091825260208220600560069092020190810154909250905b81811015610c745760008360050182815481106121bc576121bc612ec5565b60009182526020808320909101548783526004825260408084206001600160a01b039092168452915281205550806121f381613242565b91505061219d565b60008181526006602052604081205460058054909190811061221f5761221f612ec5565b6000918252602080832060069290920290910160030180546001600160a01b0319166001600160a01b039485161790559184168152600790915260408120805490919061226e90600190613153565b9050600082600001828154811061228757612287612ec5565b906000526020600020015490506000836001016000868152602001908152602001600020549050818460000182815481106122c4576122c4612ec5565b600091825260208083209091019290925583815260018601909152604080822083905586825281205583548490806122fe576122fe61325d565b60019003818190600052602060002001600090559055505050505050565b60008181526006602052604090205460058054849290811061234057612340612ec5565b6000918252602080832060069290920290910160030180546001600160a01b0319166001600160a01b03948516179055939091168152600780845260408083208054858552600182810188529285208190559286529082018155825292902090910155565b6000818152600660205260408120546005805483929081106123c9576123c9612ec5565b6000918252602082206005600690920201015491505b8181101561246e57600084815260066020526040902054600580546001600160a01b0388169290811061241457612414612ec5565b9060005260206000209060060201600501828154811061243657612436612ec5565b6000918252602090912001546001600160a01b0316141561245c576001925050506106f8565b8061246681613242565b9150506123df565b506000949350505050565b60006001600160a01b0384163b1515801561250d57506040516301ffc9a760e01b8152630a85bd0160e11b60048201526001600160a01b038516906301ffc9a79060240160206040518083038186803b1580156124d557600080fd5b505afa1580156124e9573d6000803e3d6000fd5b505050506040513d601f19601f8201168201806040525081019061250d91906131ca565b1561263957604051630a85bd0160e11b81526001600160a01b0385169063150b7a0290612544903390899088908890600401613273565b602060405180830381600087803b15801561255e57600080fd5b505af192505050801561258e575060408051601f3d908101601f1916820190925261258b91810190613225565b60015b61261f573d8080156125bc576040519150601f19603f3d011682016040523d82523d6000602084013e6125c1565b606091505b5080516121305760405162461bcd60e51b815260206004820152602660248201527f4552433732313a207472616e7366657220746f206e6f6e20455243373231526560448201526531b2b4bb32b960d11b6064820152608401610821565b6001600160e01b031916630a85bd0160e11b1490506109ac565b5060016109ac565b606060006126508360026132b0565b61265b90600261316a565b67ffffffffffffffff81111561267357612673612b47565b6040519080825280601f01601f19166020018201604052801561269d576020820181803683370190505b509050600360fc1b816000815181106126b8576126b8612ec5565b60200101906001600160f81b031916908160001a905350600f60fb1b816001815181106126e7576126e7612ec5565b60200101906001600160f81b031916908160001a905350600061270b8460026132b0565b61271690600161316a565b90505b600181111561278e576f181899199a1a9b1b9c1cb0b131b232b360811b85600f166010811061274a5761274a612ec5565b1a60f81b82828151811061276057612760612ec5565b60200101906001600160f81b031916908160001a90535060049490941c93612787816132cf565b9050612719565b50831561096b5760405162461bcd60e51b815260206004820181905260248201527f537472696e67733a20686578206c656e67746820696e73756666696369656e746044820152606401610821565b600580548251600090815260066020818152604080842085905560018501865594909252845192027f036b6384b5eca791c62761152d0c79bb0604c104a5fb6f4eb0703f3154bb3db08101928355818501517f036b6384b5eca791c62761152d0c79bb0604c104a5fb6f4eb0703f3154bb3db1820155928401517f036b6384b5eca791c62761152d0c79bb0604c104a5fb6f4eb0703f3154bb3db284015560608401517f036b6384b5eca791c62761152d0c79bb0604c104a5fb6f4eb0703f3154bb3db3840180546001600160a01b039283166001600160a01b03199182161790915560808601517f036b6384b5eca791c62761152d0c79bb0604c104a5fb6f4eb0703f3154bb3db48601805491909316911617905560a084015180518594610c74937f036b6384b5eca791c62761152d0c79bb0604c104a5fb6f4eb0703f3154bb3db59091019201906129b0565b82805461293890612e8a565b90600052602060002090601f01602090048101928261295a57600085556129a0565b82601f1061297357805160ff19168380011785556129a0565b828001600101855582156129a0579182015b828111156129a0578251825591602001919060010190612985565b506129ac929150612a05565b5090565b8280548282559060005260206000209081019282156129a0579160200282015b828111156129a057825182546001600160a01b0319166001600160a01b039091161782556020909201916001909101906129d0565b5b808211156129ac5760008155600101612a06565b6001600160e01b03198116811461132057600080fd5b600060208284031215612a4257600080fd5b813561096b81612a1a565b60005b83811015612a68578181015183820152602001612a50565b83811115610c745750506000910152565b60008151808452612a91816020860160208601612a4d565b601f01601f19169290920160200192915050565b60208152600061096b6020830184612a79565b600060208284031215612aca57600080fd5b5035919050565b80356001600160a01b0381168114610dc857600080fd5b60008060408385031215612afb57600080fd5b612b0483612ad1565b946020939093013593505050565b600080600060608486031215612b2757600080fd5b83359250612b3760208501612ad1565b9150604084013590509250925092565b634e487b7160e01b600052604160045260246000fd5b604051601f8201601f1916810167ffffffffffffffff81118282101715612b8657612b86612b47565b604052919050565b600067ffffffffffffffff821115612ba857612ba8612b47565b50601f01601f191660200190565b6000612bc9612bc484612b8e565b612b5d565b9050828152838383011115612bdd57600080fd5b828260208301376000602084830101529392505050565b600082601f830112612c0557600080fd5b61096b83833560208501612bb6565b600080600080600060a08688031215612c2c57600080fd5b612c3586612ad1565b94506020860135935060408601359250612c5160608701612ad1565b9150608086013567ffffffffffffffff811115612c6d57600080fd5b612c7988828901612bf4565b9150509295509295909350565b600080600060608486031215612c9b57600080fd5b612ca484612ad1565b9250612b3760208501612ad1565b600080600060608486031215612cc757600080fd5b505081359360208301359350604090920135919050565b600060208284031215612cf057600080fd5b61096b82612ad1565b801515811461132057600080fd5b60008060408385031215612d1a57600080fd5b612d2383612ad1565b91506020830135612d3381612cf9565b809150509250929050565b60008060008060008060c08789031215612d5757600080fd5b612d6087612ad1565b9550602087013594506040870135935060608701359250612d8360808801612ad1565b915060a087013567ffffffffffffffff811115612d9f57600080fd5b612dab89828a01612bf4565b9150509295509295509295565b60008060008060808587031215612dce57600080fd5b612dd785612ad1565b9350612de560208601612ad1565b925060408501359150606085013567ffffffffffffffff811115612e0857600080fd5b8501601f81018713612e1957600080fd5b612e2887823560208401612bb6565b91505092959194509250565b60008060408385031215612e4757600080fd5b82359150612e5760208401612ad1565b90509250929050565b60008060408385031215612e7357600080fd5b612e7c83612ad1565b9150612e5760208401612ad1565b600181811c90821680612e9e57607f821691505b60208210811415612ebf57634e487b7160e01b600052602260045260246000fd5b50919050565b634e487b7160e01b600052603260045260246000fd5b60208082526022908201527f455243333532353a20617070726f76616c20746f2063757272656e74206f776e60408201526132b960f11b606082015260800190565b60208082526039908201527f455243333532353a20617070726f76652063616c6c6572206973206e6f74206f60408201527f776e6572206e6f7220617070726f76656420666f7220616c6c00000000000000606082015260800190565b60008351612f8c818460208801612a4d565b64736c6f742f60d81b9083019081528351612fae816005840160208801612a4d565b01600501949350505050565b600060208284031215612fcc57600080fd5b815167ffffffffffffffff811115612fe357600080fd5b8201601f81018413612ff457600080fd5b8051613002612bc482612b8e565b81815285602083850101111561301757600080fd5b613028826020830160208601612a4d565b95945050505050565b60208082526027908201527f4f6e6c7920746f6b656e206f776e65722063616e207472616e73666572206f7760408201526606e6572736869760cc1b606082015260800190565b60208082526032908201527f455243333532353a207472616e736665722063616c6c6572206973206e6f74206040820152711bdddb995c881b9bdc88185c1c1c9bdd995960721b606082015260800190565b600083516130dc818460208801612a4d565b8351908301906130f0818360208801612a4d565b01949350505050565b6000835161310b818460208801612a4d565b68636f6e74726163742f60b81b9083019081528351613131816009840160208801612a4d565b01600901949350505050565b634e487b7160e01b600052601160045260246000fd5b6000828210156131655761316561313d565b500390565b6000821982111561317d5761317d61313d565b500190565b60208082526028908201527f455243333532353a207472616e7366657220746f206e6f6e20455243333532356040820152672932b1b2b4bb32b960c11b606082015260800190565b6000602082840312156131dc57600080fd5b815161096b81612cf9565b60018060a01b038616815284602082015283604082015282606082015260a06080820152600061321a60a0830184612a79565b979650505050505050565b60006020828403121561323757600080fd5b815161096b81612a1a565b60006000198214156132565761325661313d565b5060010190565b634e487b7160e01b600052603160045260246000fd5b6001600160a01b03858116825284166020820152604081018390526080606082018190526000906132a690830184612a79565b9695505050505050565b60008160001904831182151516156132ca576132ca61313d565b500290565b6000816132de576132de61313d565b50600019019056fea2646970667358221220a455aed2f53a6e91ed56c68c26f8847b0b1d90bcfd4aea2114129a07ff22a47664736f6c63430008090033",
  "linkReferences": {},
  "deployedLinkReferences": {}
}